{
  "contractName": "Todo",
  "abi": [
    {
      "inputs": [],
      "stateMutability": "nonpayable",
      "type": "constructor"
    },
    {
      "anonymous": false,
      "inputs": [
        {
          "indexed": false,
          "internalType": "uint256",
          "name": "id",
          "type": "uint256"
        },
        {
          "indexed": false,
          "internalType": "string",
          "name": "description",
          "type": "string"
        },
        {
          "indexed": false,
          "internalType": "bool",
          "name": "completed",
          "type": "bool"
        }
      ],
      "name": "AddTaskCreated",
      "type": "event"
    },
    {
      "anonymous": false,
      "inputs": [
        {
          "indexed": false,
          "internalType": "uint256",
          "name": "id",
          "type": "uint256"
        },
        {
          "indexed": false,
          "internalType": "bool",
          "name": "completed",
          "type": "bool"
        }
      ],
      "name": "CompletedTaskCreated",
      "type": "event"
    },
    {
      "inputs": [],
      "name": "taskCount",
      "outputs": [
        {
          "internalType": "uint256",
          "name": "",
          "type": "uint256"
        }
      ],
      "stateMutability": "view",
      "type": "function",
      "constant": true
    },
    {
      "inputs": [
        {
          "internalType": "uint256",
          "name": "",
          "type": "uint256"
        }
      ],
      "name": "tasks",
      "outputs": [
        {
          "internalType": "uint256",
          "name": "id",
          "type": "uint256"
        },
        {
          "internalType": "string",
          "name": "description",
          "type": "string"
        },
        {
          "internalType": "bool",
          "name": "completed",
          "type": "bool"
        }
      ],
      "stateMutability": "view",
      "type": "function",
      "constant": true
    },
    {
      "inputs": [
        {
          "internalType": "string",
          "name": "_description",
          "type": "string"
        }
      ],
      "name": "addTask",
      "outputs": [],
      "stateMutability": "nonpayable",
      "type": "function"
    }
  ],
  "bytecode": "0x608060405260006001553480156200001657600080fd5b506200005d6040518060400160405280601981526020017f4e46542043686f6f73652c206e667463686f6f73652e636f6d000000000000008152506200006360201b60201c565b620003f2565b60016000815480929190620000789062000229565b919050555060405180606001604052806001548152602001828152602001600015158152506000806001548152602001908152602001600020600082015181600001556020820151816001019080519060200190620000d992919062000140565b5060408201518160020160006101000a81548160ff0219169083151502179055509050507f96ccc2f8596f30a460e34c4be9cc6ea98359f7e0bedb7ab218bc12f05b2f9fed600154826000604051620001359392919062000349565b60405180910390a150565b8280546200014e90620003bc565b90600052602060002090601f016020900481019282620001725760008555620001be565b82601f106200018d57805160ff1916838001178555620001be565b82800160010185558215620001be579182015b82811115620001bd578251825591602001919060010190620001a0565b5b509050620001cd9190620001d1565b5090565b5b80821115620001ec576000816000905550600101620001d2565b5090565b7f4e487b7100000000000000000000000000000000000000000000000000000000600052601160045260246000fd5b6000819050919050565b600062000236826200021f565b91507fffffffffffffffffffffffffffffffffffffffffffffffffffffffffffffffff8214156200026c576200026b620001f0565b5b600182019050919050565b62000282816200021f565b82525050565b600081519050919050565b600082825260208201905092915050565b60005b83811015620002c4578082015181840152602081019050620002a7565b83811115620002d4576000848401525b50505050565b6000601f19601f8301169050919050565b6000620002f88262000288565b62000304818562000293565b935062000316818560208601620002a4565b6200032181620002da565b840191505092915050565b60008115159050919050565b62000343816200032c565b82525050565b600060608201905062000360600083018662000277565b8181036020830152620003748185620002eb565b905062000385604083018462000338565b949350505050565b7f4e487b7100000000000000000000000000000000000000000000000000000000600052602260045260246000fd5b60006002820490506001821680620003d557607f821691505b60208210811415620003ec57620003eb6200038d565b5b50919050565b61071180620004026000396000f3fe608060405234801561001057600080fd5b50600436106100415760003560e01c806367238562146100465780638d97767214610062578063b6cb58a514610094575b600080fd5b610060600480360381019061005b919061044b565b6100b2565b005b61007c600480360381019061007791906104ca565b610189565b60405161008b939291906105a9565b60405180910390f35b61009c610248565b6040516100a991906105e7565b60405180910390f35b600160008154809291906100c590610631565b91905055506040518060600160405280600154815260200182815260200160001515815250600080600154815260200190815260200160002060008201518160000155602082015181600101908051906020019061012492919061024e565b5060408201518160020160006101000a81548160ff0219169083151502179055509050507f96ccc2f8596f30a460e34c4be9cc6ea98359f7e0bedb7ab218bc12f05b2f9fed60015482600060405161017e939291906105a9565b60405180910390a150565b60006020528060005260406000206000915090508060000154908060010180546101b2906106a9565b80601f01602080910402602001604051908101604052809291908181526020018280546101de906106a9565b801561022b5780601f106102005761010080835404028352916020019161022b565b820191906000526020600020905b81548152906001019060200180831161020e57829003601f168201915b5050505050908060020160009054906101000a900460ff16905083565b60015481565b82805461025a906106a9565b90600052602060002090601f01602090048101928261027c57600085556102c3565b82601f1061029557805160ff19168380011785556102c3565b828001600101855582156102c3579182015b828111156102c25782518255916020019190600101906102a7565b5b5090506102d091906102d4565b5090565b5b808211156102ed5760008160009055506001016102d5565b5090565b6000604051905090565b600080fd5b600080fd5b600080fd5b600080fd5b6000601f19601f8301169050919050565b7f4e487b7100000000000000000000000000000000000000000000000000000000600052604160045260246000fd5b6103588261030f565b810181811067ffffffffffffffff8211171561037757610376610320565b5b80604052505050565b600061038a6102f1565b9050610396828261034f565b919050565b600067ffffffffffffffff8211156103b6576103b5610320565b5b6103bf8261030f565b9050602081019050919050565b82818337600083830152505050565b60006103ee6103e98461039b565b610380565b90508281526020810184848401111561040a5761040961030a565b5b6104158482856103cc565b509392505050565b600082601f83011261043257610431610305565b5b81356104428482602086016103db565b91505092915050565b600060208284031215610461576104606102fb565b5b600082013567ffffffffffffffff81111561047f5761047e610300565b5b61048b8482850161041d565b91505092915050565b6000819050919050565b6104a781610494565b81146104b257600080fd5b50565b6000813590506104c48161049e565b92915050565b6000602082840312156104e0576104df6102fb565b5b60006104ee848285016104b5565b91505092915050565b61050081610494565b82525050565b600081519050919050565b600082825260208201905092915050565b60005b83811015610540578082015181840152602081019050610525565b8381111561054f576000848401525b50505050565b600061056082610506565b61056a8185610511565b935061057a818560208601610522565b6105838161030f565b840191505092915050565b60008115159050919050565b6105a38161058e565b82525050565b60006060820190506105be60008301866104f7565b81810360208301526105d08185610555565b90506105df604083018461059a565b949350505050565b60006020820190506105fc60008301846104f7565b92915050565b7f4e487b7100000000000000000000000000000000000000000000000000000000600052601160045260246000fd5b600061063c82610494565b91507fffffffffffffffffffffffffffffffffffffffffffffffffffffffffffffffff82141561066f5761066e610602565b5b600182019050919050565b7f4e487b7100000000000000000000000000000000000000000000000000000000600052602260045260246000fd5b600060028204905060018216806106c157607f821691505b602082108114156106d5576106d461067a565b5b5091905056fea26469706673582212208d31665a0813b438275b8cbc11db35e1673bd857acf884d18ba4f916bfc1e7c764736f6c634300080a0033",
  "immutableReferences": {},
  "source": "// SPDX-License-Identifier: MIT\npragma solidity >=0.4.22 <0.9.0;\n\ncontract Todo {\n    struct Task {\n        uint256 id;\n        string description;\n        bool completed;\n    }\n\n    mapping(uint256 => Task) public tasks;\n\n    uint256 public taskCount = 0;\n    address minter;\n\n    constructor() {\n        addTask(\"NFT Choose, nftchoose.com\");\n    }\n\n    event AddTaskCreated(uint256 id, string description, bool completed);\n    event CompletedTaskCreated(uint256 id, bool completed);\n\n    function addTask(string memory _description) public {\n        taskCount++;\n        tasks[taskCount] = Task(taskCount, _description, false);\n        emit AddTaskCreated(taskCount, _description, false);\n    }\n\n    // function completeTask(uint256 _id) public {\n    //     Task memory _task = tasks[_id];\n    //     _task.completed = !_task.completed;\n    //     tasks[_id] = _task;\n\n    //     emit CompletedTaskCreated(_id, _task.completed);\n    // }\n}\n",
  "sourcePath": "/Users/jeffmascarenhas/blockchain/dapps/todoList/contracts/Todo.sol",
  "compiler": {
    "name": "solc",
    "version": "0.8.10+commit.fc410830.Emscripten.clang"
  },
  "schemaVersion": "3.4.4",
  "updatedAt": "2021-12-29T17:03:25.817Z",
  "networkType": "ethereum",
  "devdoc": {
    "kind": "dev",
    "methods": {},
    "version": 1
  },
  "userdoc": {
    "kind": "user",
    "methods": {},
    "version": 1
  }
}