{
  "contractName": "Todo",
  "abi": [
    {
      "inputs": [],
      "stateMutability": "nonpayable",
      "type": "constructor"
    },
    {
      "anonymous": false,
      "inputs": [
        {
          "indexed": false,
          "internalType": "uint256",
          "name": "id",
          "type": "uint256"
        },
        {
          "indexed": false,
          "internalType": "string",
          "name": "description",
          "type": "string"
        },
        {
          "indexed": false,
          "internalType": "bool",
          "name": "completed",
          "type": "bool"
        }
      ],
      "name": "AddTaskCreated",
      "type": "event"
    },
    {
      "anonymous": false,
      "inputs": [
        {
          "indexed": false,
          "internalType": "uint256",
          "name": "id",
          "type": "uint256"
        },
        {
          "indexed": false,
          "internalType": "bool",
          "name": "completed",
          "type": "bool"
        }
      ],
      "name": "CompletedTaskCreated",
      "type": "event"
    },
    {
      "inputs": [],
      "name": "taskCount",
      "outputs": [
        {
          "internalType": "uint256",
          "name": "",
          "type": "uint256"
        }
      ],
      "stateMutability": "view",
      "type": "function",
      "constant": true
    },
    {
      "inputs": [
        {
          "internalType": "uint256",
          "name": "",
          "type": "uint256"
        }
      ],
      "name": "tasks",
      "outputs": [
        {
          "internalType": "uint256",
          "name": "id",
          "type": "uint256"
        },
        {
          "internalType": "string",
          "name": "description",
          "type": "string"
        },
        {
          "internalType": "bool",
          "name": "completed",
          "type": "bool"
        }
      ],
      "stateMutability": "view",
      "type": "function",
      "constant": true
    },
    {
      "inputs": [
        {
          "internalType": "string",
          "name": "_description",
          "type": "string"
        }
      ],
      "name": "addTask",
      "outputs": [],
      "stateMutability": "nonpayable",
      "type": "function"
    },
    {
      "inputs": [
        {
          "internalType": "uint256",
          "name": "_id",
          "type": "uint256"
        }
      ],
      "name": "completeTaskToggle",
      "outputs": [],
      "stateMutability": "nonpayable",
      "type": "function"
    }
  ],
  "bytecode": "0x608060405260006001553480156200001657600080fd5b506200005d6040518060400160405280601981526020017f4e46542043686f6f73652c206e667463686f6f73652e636f6d000000000000008152506200006360201b60201c565b620003f2565b60016000815480929190620000789062000229565b919050555060405180606001604052806001548152602001828152602001600015158152506000806001548152602001908152602001600020600082015181600001556020820151816001019080519060200190620000d992919062000140565b5060408201518160020160006101000a81548160ff0219169083151502179055509050507f96ccc2f8596f30a460e34c4be9cc6ea98359f7e0bedb7ab218bc12f05b2f9fed600154826000604051620001359392919062000349565b60405180910390a150565b8280546200014e90620003bc565b90600052602060002090601f016020900481019282620001725760008555620001be565b82601f106200018d57805160ff1916838001178555620001be565b82800160010185558215620001be579182015b82811115620001bd578251825591602001919060010190620001a0565b5b509050620001cd9190620001d1565b5090565b5b80821115620001ec576000816000905550600101620001d2565b5090565b7f4e487b7100000000000000000000000000000000000000000000000000000000600052601160045260246000fd5b6000819050919050565b600062000236826200021f565b91507fffffffffffffffffffffffffffffffffffffffffffffffffffffffffffffffff8214156200026c576200026b620001f0565b5b600182019050919050565b62000282816200021f565b82525050565b600081519050919050565b600082825260208201905092915050565b60005b83811015620002c4578082015181840152602081019050620002a7565b83811115620002d4576000848401525b50505050565b6000601f19601f8301169050919050565b6000620002f88262000288565b62000304818562000293565b935062000316818560208601620002a4565b6200032181620002da565b840191505092915050565b60008115159050919050565b62000343816200032c565b82525050565b600060608201905062000360600083018662000277565b8181036020830152620003748185620002eb565b905062000385604083018462000338565b949350505050565b7f4e487b7100000000000000000000000000000000000000000000000000000000600052602260045260246000fd5b60006002820490506001821680620003d557607f821691505b60208210811415620003ec57620003eb6200038d565b5b50919050565b6108ec80620004026000396000f3fe608060405234801561001057600080fd5b506004361061004c5760003560e01c806336b5dc0a14610051578063672385621461006d5780638d97767214610089578063b6cb58a5146100bb575b600080fd5b61006b600480360381019061006691906104ed565b6100d9565b005b61008760048036038101906100829190610660565b610264565b005b6100a3600480360381019061009e91906104ed565b61033b565b6040516100b29392919061075b565b60405180910390f35b6100c36103fa565b6040516100d09190610799565b60405180910390f35b600080600083815260200190815260200160002060405180606001604052908160008201548152602001600182018054610112906107e3565b80601f016020809104026020016040519081016040528092919081815260200182805461013e906107e3565b801561018b5780601f106101605761010080835404028352916020019161018b565b820191906000526020600020905b81548152906001019060200180831161016e57829003601f168201915b505050505081526020016002820160009054906101000a900460ff1615151515815250509050806040015115816040019015159081151581525050806000808481526020019081526020016000206000820151816000015560208201518160010190805190602001906101ff929190610400565b5060408201518160020160006101000a81548160ff0219169083151502179055509050507fea028ba88c39562af1ae40b7e65fe10a65e97f5f89f714723ad0db4a8bd0ce42828260400151604051610258929190610815565b60405180910390a15050565b600160008154809291906102779061086d565b9190505550604051806060016040528060015481526020018281526020016000151581525060008060015481526020019081526020016000206000820151816000015560208201518160010190805190602001906102d6929190610400565b5060408201518160020160006101000a81548160ff0219169083151502179055509050507f96ccc2f8596f30a460e34c4be9cc6ea98359f7e0bedb7ab218bc12f05b2f9fed6001548260006040516103309392919061075b565b60405180910390a150565b6000602052806000526040600020600091509050806000015490806001018054610364906107e3565b80601f0160208091040260200160405190810160405280929190818152602001828054610390906107e3565b80156103dd5780601f106103b2576101008083540402835291602001916103dd565b820191906000526020600020905b8154815290600101906020018083116103c057829003601f168201915b5050505050908060020160009054906101000a900460ff16905083565b60015481565b82805461040c906107e3565b90600052602060002090601f01602090048101928261042e5760008555610475565b82601f1061044757805160ff1916838001178555610475565b82800160010185558215610475579182015b82811115610474578251825591602001919060010190610459565b5b5090506104829190610486565b5090565b5b8082111561049f576000816000905550600101610487565b5090565b6000604051905090565b600080fd5b600080fd5b6000819050919050565b6104ca816104b7565b81146104d557600080fd5b50565b6000813590506104e7816104c1565b92915050565b600060208284031215610503576105026104ad565b5b6000610511848285016104d8565b91505092915050565b600080fd5b600080fd5b6000601f19601f8301169050919050565b7f4e487b7100000000000000000000000000000000000000000000000000000000600052604160045260246000fd5b61056d82610524565b810181811067ffffffffffffffff8211171561058c5761058b610535565b5b80604052505050565b600061059f6104a3565b90506105ab8282610564565b919050565b600067ffffffffffffffff8211156105cb576105ca610535565b5b6105d482610524565b9050602081019050919050565b82818337600083830152505050565b60006106036105fe846105b0565b610595565b90508281526020810184848401111561061f5761061e61051f565b5b61062a8482856105e1565b509392505050565b600082601f8301126106475761064661051a565b5b81356106578482602086016105f0565b91505092915050565b600060208284031215610676576106756104ad565b5b600082013567ffffffffffffffff811115610694576106936104b2565b5b6106a084828501610632565b91505092915050565b6106b2816104b7565b82525050565b600081519050919050565b600082825260208201905092915050565b60005b838110156106f25780820151818401526020810190506106d7565b83811115610701576000848401525b50505050565b6000610712826106b8565b61071c81856106c3565b935061072c8185602086016106d4565b61073581610524565b840191505092915050565b60008115159050919050565b61075581610740565b82525050565b600060608201905061077060008301866106a9565b81810360208301526107828185610707565b9050610791604083018461074c565b949350505050565b60006020820190506107ae60008301846106a9565b92915050565b7f4e487b7100000000000000000000000000000000000000000000000000000000600052602260045260246000fd5b600060028204905060018216806107fb57607f821691505b6020821081141561080f5761080e6107b4565b5b50919050565b600060408201905061082a60008301856106a9565b610837602083018461074c565b9392505050565b7f4e487b7100000000000000000000000000000000000000000000000000000000600052601160045260246000fd5b6000610878826104b7565b91507fffffffffffffffffffffffffffffffffffffffffffffffffffffffffffffffff8214156108ab576108aa61083e565b5b60018201905091905056fea26469706673582212205b029874a50bdf9c8fc1a6d613804b04058138a8680116d42307405756773d0164736f6c634300080a0033",
  "immutableReferences": {},
  "source": "// SPDX-License-Identifier: MIT\npragma solidity >=0.4.22 <0.9.0;\n\ncontract Todo {\n    struct Task {\n        uint256 id;\n        string description;\n        bool completed;\n    }\n\n    mapping(uint256 => Task) public tasks;\n\n    uint256 public taskCount = 0;\n    address minter;\n\n    constructor() {\n        addTask(\"NFT Choose, nftchoose.com\");\n    }\n\n    event AddTaskCreated(uint256 id, string description, bool completed);\n    event CompletedTaskCreated(uint256 id, bool completed);\n\n    function addTask(string memory _description) public {\n        taskCount++;\n        tasks[taskCount] = Task(taskCount, _description, false);\n        emit AddTaskCreated(taskCount, _description, false);\n    }\n\n    function completeTaskToggle(uint256 _id) public {\n        Task memory _task = tasks[_id];\n        _task.completed = !_task.completed;\n        tasks[_id] = _task;\n        emit CompletedTaskCreated(_id, _task.completed);\n    }\n}\n",
  "sourcePath": "/Users/jeffmascarenhas/blockchain/dapps/todoList/contracts/Todo.sol",
  "compiler": {
    "name": "solc",
    "version": "0.8.10+commit.fc410830.Emscripten.clang"
  },
  "schemaVersion": "3.4.4",
  "updatedAt": "2022-01-03T21:56:21.560Z",
  "networkType": "ethereum",
  "devdoc": {
    "kind": "dev",
    "methods": {},
    "version": 1
  },
  "userdoc": {
    "kind": "user",
    "methods": {},
    "version": 1
  }
}